:100000000C9434000C949A010C9451000C945100FF
:100010000C9451000C9451000C9451000C9451001C
:100020000C9451000C9451000C9451000C946D01EF
:100030000C9451000C9451000C9451000C945100FC
:100040000C9451000C9451000C9451000C945100EC
:100050000C9451000C9451000C9451000C945100DC
:100060000C9451000C94510011241FBECFEFD8E026
:10007000DEBFCDBF14E0A0E0B1E0ECEBF1E102C0E7
:1000800005900D92A63AB107D9F724E0A6EAB4E0AC
:1000900001C01D92AA3BB207E1F70E94DD010C945A
:1000A000DC080C94000010927C00EAE7F0E080810C
:1000B000876880830895ECE7F0E09081907E8770F8
:1000C000892B8083EAE7F0E08081806480838091DF
:1000D0007A0084FFFCCFEAE7F0E0808180618083D2
:1000E0008091780090917900089595B19E7F95B99F
:1000F000EFE9FFE03197F1F700C0000095B19260A1
:1001000095B9EFE9FFE03197F1F700C000009BB12E
:10011000282F207F9F70922B9BB9EFE9FFE031974A
:10012000F1F700C0000095B19D7F95B9EFE9FFE0C0
:100130003197F1F700C0000095B1926095B9EFE9F1
:10014000FFE03197F1F700C00000F0E18F9FC001A0
:1001500011249BB19F70892B8BB98FE99FE0019788
:10016000F1F700C0000085B18D7F85B9EFE9FFE0B0
:100170003197F1F700C00000089584B1836084B91D
:1001800080EF8AB982E00E94750080E40E947500C9
:100190008CE00E94750081E00E947500089595B181
:1001A000916095B9EFE9FFE03197F1F700C00000E9
:1001B00095B1926095B9EFE9FFE03197F1F700C092
:1001C00000009BB1282F207F9F70922B9BB9EFE9F5
:1001D000FFE03197F1F700C0000095B19D7F95B920
:1001E000EFE9FFE03197F1F700C0000095B19260B0
:1001F00095B9EFE9FFE03197F1F700C00000F0E1B9
:100200008F9FC00111249BB19F70892B8BB98FE9FF
:100210009FE00197F1F700C0000085B18D7F85B99F
:10022000EFE9FFE03197F1F700C0000008950F9368
:100230001F93CF93DF938C01C0E0D0E003C00E94F6
:10024000CF002196F801EC0FFD1F80818111F7CFBF
:10025000DF91CF911F910F91089581E00E94750069
:100260000895882329F0813021F490E4960F01C08D
:10027000962F892F80680E9475000895CF93DF9391
:10028000CDB7DEB760970FB6F894DEBF0FBECDBF17
:100290000E942D0160E080E00E94310185E394E03E
:1002A0000E94170180E00E945B004AE050E0BE011E
:1002B0006F5F7F4F0E94B20565E080E00E943101D0
:1002C000CE0101960E94170160960FB6F894DEBF2A
:1002D0000FBECDBFDF91CF9108951F920F920FB641
:1002E0000F9211242F933F934F935F936F937F93BC
:1002F0008F939F93AF93BF93EF93FF930E943E0121
:10030000FF91EF91BF91AF919F918F917F916F91ED
:100310005F914F913F912F910F900FBE0F901F90C3
:10032000189560E081E00E9431018BE394E00E9427
:10033000170108951F920F920FB60F9211242F9359
:100340003F934F935F936F937F938F939F93AF935D
:10035000BF93EF93FF930E949101FF91EF91BF91A3
:10036000AF919F918F917F916F915F914F913F914D
:100370002F910F900FBE0F901F901895109285002F
:10038000109284008DE080938100EFE6F0E08081A0
:10039000826080838FEF9FEF909389008093880025
:1003A00008958AB18B7F8AB98DB381608DBBE9E6F0
:1003B000F0E080818360808308958AB18E7F8AB95E
:1003C0000E94BD000E942D010E9453000E94FA016C
:1003D0006BE474E086E594E00E942D0286EA94E0E6
:1003E0000E94C5020E94BE010E94D10178940E9421
:1003F000FA03FDCF86E08093C20088E18093C100BC
:1004000082E08093C0008FEC8093C4001092C500FE
:1004100008959091C00095FFFCCF8093C600089589
:100420008091C0008823E4F78091C60008950F935F
:100430001F93CF93DF938C01C0E0D0E003C00E94F4
:1004400009022196F801EC0FFD1F80818111F7CF81
:10045000DF91CF911F910F910895EF92FF920F932B
:100460001F93CF93DF93CDB7DEB7A8970FB6F8945D
:10047000DEBF0FBECDBF182F092FF62EE72E8DE061
:1004800091E00E9417022FEF85EE9AEA21508040FA
:100490009040E1F700C000008EE290E00E94CF00A3
:1004A00087E191E00E9417022FEF85EE9AEA215032
:1004B00080409040E1F700C000008EE290E00E9492
:1004C000CF00EF92FF920F931F9383E391E09F93EE
:1004D0008F938E010F5F1F4F1F930F930E94E205B2
:1004E000C8010E9417022FEF85EE9AEA2150804042
:1004F0009040E1F700C000008EE290E00E94CF0043
:1005000089E491E00E9417022FEF85EE9AEA2150CC
:1005100080409040E1F700C000008EE290E00E9431
:10052000CF0088E591E00E9417022FEF85EE9AEA4E
:10053000215080409040E1F700C000008EE290E042
:100540000E94CF0087E691E00E9417022FEF85EE10
:100550009AEA215080409040E1F700C000008EE20E
:1005600090E00E94CF000FB6F894DEBF0FBECDBF63
:10057000A8960FB6F894DEBF0FBECDBFDF91CF9126
:100580001F910F91FF90EF900895EF92FF920F93BC
:100590001F93CF93DF93CDB7DEB7CB54D1090FB6FE
:1005A000F894DEBF0FBECDBF8C018FE594E00E94B2
:1005B0001702F12C0BC00E941002E82EE1E0F0E0DF
:1005C000EC0FFD1FEF0DF11D8083F3942DE4E2127B
:1005D000F2CFE1E0F0E0EC0FFD1FEF0DF11D108216
:1005E00020E030E040E090E00CC0913029F4F801C8
:1005F000E40FF11D80834F5F823209F49F5F2F5F0C
:100600003F4FE1E0F0E0EC0FFD1FE20FF31F8081B0
:100610008111EBCFE42FF0E03197E00FF11F108252
:100620000E942D01C8010E9417018FEF95EC2CE567
:10063000815090402040E1F700C00000C55BDF4FD3
:100640000FB6F894DEBF0FBECDBFDF91CF911F91E3
:100650000F91FF90EF9008958133B1F42A9B0AC067
:100660008AE694E090930B0180930A0185B18B7F19
:1006700085B921C08EE694E090930B0180930A0126
:1006800085B1846085B917C08233A9F42B9B0AC059
:100690008AE694E0909309018093080185B1877FF1
:1006A00085B909C08EE694E0909309018093080112
:1006B00085B1886085B980E090E00E945B00853F4D
:1006C00091403CF081E794E090930701809306010C
:1006D00008954A9B07C084E894E0909307018093B3
:1006E0000601089584E994E0909307018093060140
:1006F0000895FF920F931F93CF93DF93CDB7DEB78B
:1007000064970FB6F894DEBF0FBECDBF10E000E0D7
:100710000FC00E9410028B3209F411E0113041F435
:10072000E1E0F0E0EC0FFD1FE00FF11D80830F5FB3
:10073000013178F3113019F48E8180930C01E02F90
:10074000F0E0319641E050E04C0F5D1FE40FF51FE3
:10075000108225E022C0FC01329741E050E04C0FAE
:100760005D1FE40FF51F40814734B1F4FC01319760
:1007700041E050E04C0F5D1FE40FF51F4081453410
:1007800059F4343549F40396E1E0F0E0EC0FFD1F35
:10079000E80FF91FF0800CC02F5F822F90E0E1E09E
:1007A000F0E0EC0FFD1FE80FF91F30813111D3CFBE
:1007B0008F2D90E00E942C0380910C0164960FB65F
:1007C000F894DEBF0FBECDBFDF91CF911F910F9187
:1007D000FF900895BC0120E030E080E090E003C08D
:1007E00001962F5F3F4FFB01E20FF31F4081411144
:1007F000F7CF0895CF92DF92FF920F931F93CF937D
:10080000DF93CDB7DEB7C555D1090FB6F894DEBF7B
:100810000FBECDBF0E947903182F893309F472C02F
:100820008CE791E00E94EA0302960E949104F82E60
:10083000092F809109018F93809108018F938091F6
:100840000B018F9380910A018F93809107018F9301
:10085000809106018F938CE791E09F938F930F9384
:10086000FF920E94E2058F2D902F0E94EA039F9332
:100870008F931F921F938FE094E09F938F936E014D
:1008800029E2C20ED11CDF92CF920E94E205C6017E
:100890000E9417028FEF93ED20E38150904020409B
:1008A000E1F700C000008F2D902F0E9417028FEFFC
:1008B00093ED20E3815090402040E1F700C000001C
:1008C0008F2D902F0E9429051F921F9383E294E0A1
:1008D0009F938F938E010F5F1F4F1F930F930E9463
:1008E000E205C8010E9417028FEF93ED20E38150CB
:1008F00090402040E1F700C000000FB6F894DEBF42
:100900000FBECDBFCB5ADF4F0FB6F894DEBF0FBE80
:10091000CDBFDF91CF911F910F91FF90DF90CF90CE
:1009200008950F931F93CF93DF938230910510F4B6
:1009300082E090E0E091B804F091B90420E030E06A
:10094000A0E0B0E0309719F140815181028113811C
:1009500048175907C8F08417950769F4109731F0C4
:1009600012960C93129713961C9327C00093B80409
:100970001093B90422C02115310519F0421753070D
:1009800018F49A01BD01EF01DF01F801DBCF211559
:100990003105F9F0281B390B2430310580F48A81A8
:1009A0009B816115710521F0FB019383828304C053
:1009B0009093B9048093B804FE01329644C0FE01BE
:1009C000E20FF31F819391932250310939832883D9
:1009D0003AC02091B6043091B704232B41F4209102
:1009E0000201309103013093B7042093B6042091A3
:1009F0000001309101012115310541F42DB73EB7B9
:100A00004091040150910501241B350BE091B6047F
:100A1000F091B704E217F307A0F42E1B3F0B281741
:100A2000390778F0AC014E5F5F4F2417350748F067
:100A30004E0F5F1F5093B7044093B6048193919378
:100A400002C0E0E0F0E0CF01DF91CF911F910F9164
:100A50000895CF93DF93009709F481C0FC0132978A
:100A600013821282A091B804B091B904109781F456
:100A700020813181820F931F2091B6043091B704F9
:100A80002817390751F5F093B704E093B60467C00F
:100A9000ED0120E030E0CE17DF0740F44A815B81B2
:100AA0009E0141155105F1F0EA01F5CFD383C283D0
:100AB00040815181840F951FC817D90759F4888147
:100AC0009981840F951F0296918380838A819B81EF
:100AD000938382832115310529F4F093B904E093BF
:100AE000B8043DC0E901FB83EA8349915991C40FE1
:100AF000D51FEC17FD0761F480819181840F951F4C
:100B00000296E90199838883828193819B838A83FA
:100B1000E0E0F0E012968D919C911397009719F008
:100B2000FD01DC01F7CF8D919C9111979D012E5F06
:100B30003F4F820F931F2091B6043091B7042817BE
:100B4000390769F4309729F41092B9041092B80467
:100B500002C013821282B093B704A093B604DF914F
:100B6000CF9108954532510520F4423010F00C9495
:100B7000BD05FB011082CB010895BB274A3031F43B
:100B8000992322F4BDE2909581959F4F0C94C9055D
:100B9000BB27FB015527AA27880F991FAA1FA41757
:100BA00010F0A41B83955051B9F7A05DAA3308F04B
:100BB000A95DA193009779F7B111B1931192CB017F
:100BC0000C94FB07AEE0B0E0E8EEF5E00C94B3085F
:100BD0000D891E8986E08C831A8309838FEF9FE736
:100BE0009E838D83AE01475E5F4F6F89788DCE0106
:100BF00001960E940406EF81F885E00FF11F108234
:100C00002E96E4E00C94CF08ABE0B0E0EAE0F6E02A
:100C10000C94A5086C017B018A01FC0117821682E5
:100C2000838181FFCCC1CE0101963C01F601938105
:100C3000F70193FD859193FF81917F01882309F44A
:100C4000BAC1853239F493FD859193FF81917F017B
:100C5000853229F4B60190E00E940B08E7CF912C71
:100C6000212C312CFFE1F315D8F08B3279F038F4D8
:100C7000803279F08332A1F4232D20611DC08D32A2
:100C800061F0803369F4232D216016C0832D8260CA
:100C9000382EE32DE4603E2E2AC0F32DF8601DC0EF
:100CA00037FC2DC020ED280F2A3040F08E32B9F4E9
:100CB00036FC81C1232D2064322E19C036FE06C0B9
:100CC0008AE0989E200D1124922E11C0EAE02E9EFB
:100CD000200D1124222EF32DF0623F2E08C08C36F9
:100CE00021F4832D8068382E02C0883641F4F70144
:100CF00093FD859193FF81917F018111B3CF982F4F
:100D00009F7D9554933028F40C5F1F4F9FE3998388
:100D10000DC0833631F0833771F0833509F059C047
:100D200021C0F801808189830E5F1F4F882483943E
:100D3000912C530113C02801F2E04F0E511CF80111
:100D4000A080B18036FE03C0692D70E002C06FEF55
:100D50007FEFC5010E94F0074C018201F32DFF7760
:100D60003F2E16C0280122E0420E511CF801A0803F
:100D7000B18036FE03C0692D70E002C06FEF7FEFD7
:100D8000C5010E94E5074C01F32DF0683F2E82015A
:100D900033FC1BC0822D90E088169906B0F4B60192
:100DA00080E290E00E940B082A94F4CFF50137FC12
:100DB000859137FE81915F01B60190E00E940B089A
:100DC00021102A9421E0821A91088114910471F76C
:100DD000E8C0843611F0893641F5F80137FE07C0C6
:100DE00060817181828193810C5F1F4F08C0608197
:100DF0007181072E000C880B990B0E5F1F4FF32D8E
:100E0000FF763F2E97FF09C090958095709561956C
:100E10007F4F8F4F9F4FF0683F2E2AE030E0A301B5
:100E20000E944708882E861845C0853731F4232D47
:100E30002F7EB22E2AE030E025C0932D997FB92E67
:100E40008F36C1F018F4883579F0B5C0803719F0C5
:100E5000883721F0B0C0E92FE061BE2EB4FE0DC08E
:100E6000FB2DF460BF2E09C034FE0AC0292F266076
:100E7000B22E06C028E030E005C020E130E002C01C
:100E800020E132E0F801B7FE07C060817181828104
:100E900093810C5F1F4F06C06081718180E090E0FC
:100EA0000E5F1F4FA3010E944708882E8618FB2D56
:100EB000FF773F2E36FE0DC0232D2E7FA22E8914E4
:100EC00058F434FE0BC032FC09C0832D8E7EA82E50
:100ED00005C0B82CA32C03C0B82C01C0B92CA4FEAB
:100EE0000FC0FE01E80DF11D8081803321F49A2DA1
:100EF000997EA92E09C0A2FE06C0B394B39404C083
:100F00008A2D867809F0B394A3FC11C0A0FE06C018
:100F1000B21488F4280C922C9B180EC0B21460F402
:100F2000B60180E290E00E940B08B394F7CFB214B0
:100F300018F42B1802C0982C212CA4FE10C0B60166
:100F400080E390E00E940B08A2FE17C0A1FC03C042
:100F500088E790E002C088E590E0B6010CC08A2DD9
:100F6000867859F0A1FE02C08BE201C080E2A7FCA6
:100F70008DE2B60190E00E940B08891438F4B601A6
:100F800080E390E00E940B089A94F7CF8A94F301D3
:100F9000E80DF11D8081B60190E00E940B088110E0
:100FA000F5CF222009F442CEB60180E290E00E9403
:100FB0000B082A94F6CFF6018681978102C08FEF45
:100FC0009FEF2B96E2E10C94C108FC010590615063
:100FD00070400110D8F7809590958E0F9F1F08954F
:100FE000FC016150704001900110D8F780959095F8
:100FF0008E0F9F1F0895DC01FC01672F71917723ED
:10100000E1F7329704C07C916D9370836291AE17C3
:10101000BF07C8F308950F931F93CF93DF93FB018E
:10102000238121FD03C08FEF9FEF2CC022FF16C04C
:1010300046815781248135814217530744F4A081AA
:10104000B1819D012F5F3F4F318320838C93268197
:1010500037812F5F3F4F3783268314C08B01EC010C
:10106000FB010084F185E02D0995892BE1F6D8017B
:1010700016968D919C911797019617969C938E9337
:101080001697CE01DF91CF911F910F910895FA012C
:10109000AA27283051F1203181F1E8946F936E7FB7
:1010A0006E5F7F4F8F4F9F4FAF4FB1E03ED0B4E0A8
:1010B0003CD0670F781F891F9A1FA11D680F791FE9
:1010C0008A1F911DA11D6A0F711D811D911DA11DFA
:1010D00020D009F468943F912AE0269F112430190A
:1010E000305D3193DEF6CF010895462F4770405DA5
:1010F0004193B3E00FD0C9F7F6CF462F4F70405D54
:101100004A3318F0495D31FD4052419302D0A9F7AE
:10111000EACFB4E0A6959795879577956795BA95A8
:10112000C9F700976105710508959B01AC010A2E6E
:1011300006945795479537952795BA95C9F7620F45
:10114000731F841F951FA01D08952F923F924F92E9
:101150005F926F927F928F929F92AF92BF92CF9247
:10116000DF92EF92FF920F931F93CF93DF93CDB750
:10117000DEB7CA1BDB0B0FB6F894DEBF0FBECDBFC8
:1011800009942A88398848885F846E847D848C8499
:101190009B84AA84B984C884DF80EE80FD800C81A2
:1011A0001B81AA81B981CE0FD11D0FB6F894DEBF85
:0C11B0000FBECDBFED010895F894FFCFF5
:1011BC000000BA04200094046A046A043041542BE1
:1011CC005253540D0A000041542B554152545F4464
:1011DC0045463D393630302C382C312C302C300DE6
:1011EC000A000041542B43574A41503D222573229B
:1011FC002C222573220D0A000041542B43574D4FCE
:10120C0044453D310D0A000041542B4349504D5586
:10121C00583D310D0A000041542B4349505345525F
:10122C005645523D312C38300D0A00003C21444FBC
:10123C0043545950452068746D6C3E09093C6874E0
:10124C006D6C206C616E673D22656E223E3C68655C
:10125C0061643E09093C6D65746120636861727359
:10126C0065743D225554462D38223E09093C6D6566
:10127C00746120687474702D65717569763D22589F
:10128C002D55412D436F6D70617469626C65222020
:10129C00636F6E74656E743D2249453D6564676588
:1012AC00223E09093C6D657461206E616D653D22BD
:1012BC0076696577706F72742220636F6E74656ED9
:1012CC00743D2277696474683D6465766963652D45
:1012DC0077696474682C20696E697469616C2D730C
:1012EC0063616C653D312E30223E09093C6D65749D
:1012FC006120687474702D65717569763D22726514
:10130C0066726573682220636F6E74656E743D221D
:10131C00383B2075726C3D687474703A2F2F3139DC
:10132C00322E3136382E312E32313A383022202FAF
:10133C003E09093C7469746C653E464349532D4320
:10134C005359532D323032333C2F7469746C653ED3
:10135C0009093C6C696E6B2072656C3D2273747963
:10136C006C6573686565742220687265663D2268D9
:10137C00747470733A2F2F63646E2E6A7364656C89
:10138C006976722E6E65742F67682F7A6961646254
:10139C00616477792F656D62646564406C61746516
:1013AC0073742F6D61696E2E637373223E09093C51
:1013BC002F686561643E3C626F64793E3C73656383
:1013CC0074696F6E3E09093C7020636C6173733DE8
:1013DC00226D61696E2D776F7264223E25733C2FEE
:1013EC00703E09093C64697620636C6173733D221D
:1013FC0062746E73223E09093C703E5379737465B6
:10140C006D206973205475726E6564204F6E3C2F8D
:10141C00703E09093C6120687265663D222F3122BD
:10142C003E3C627574746F6E2069643D226F6E5F12
:10143C0062746E2220636C6173733D2262746E2041
:10144C00622D312D6F6E223E25733C2F62757474A4
:10145C006F6E3E3C2F613E09093C612068726566E7
:10146C003D222F32223E3C627574746F6E2069648B
:10147C003D226F66665F62746E2220636C617373CB
:10148C003D2262746E20622D322D6F6E223E2573CA
:10149C003C2F627574746F6E3E3C2F613E09093CA3
:1014AC002F6469763E3C2F73656374696F6E3E3CA6
:1014BC002F626F64793E3C2F68746D6C3E00004166
:1014CC00542B43495053454E443D25632C25640D04
:1014DC000A000041542B434950434C4F53453D2582
:1014EC00630D0A000054656D703A004D6F74696F9E
:1014FC006E20446574656374656400483230303026
:10150C003132323248004D6F73746166612E004186
:10151C00542B43494653520D0A004F4646004F4E3A
:10152C0000484947482054454D50204445544543B4
:10153C00544544004D4F54494F4E20444554454367
:10154C0054454400494F5420536D617274205379B3
:06155C007374656D0000D0
:00000001FF
